:020000040800F2
:10000000B80C0010AD020008FB3A0008F33A0008F3
:10001000F73A0008511D000839540008000000009C
:10002000000000000000000000000000E53E0008A5
:100030005F1F000800000000FD3A0008094D00089D
:10004000D1020008D1020008D1020008D102000844
:10005000D1020008D1020008D1020008D102000834
:10006000D1020008D1020008D1020008D102000824
:10007000D1020008D1020008D1020008D102000814
:10008000D1020008D1020008D1020008D102000804
:10009000D1020008D1020008D1020008D1020008F4
:1000A000D1020008D1020008D1020008D1020008E4
:1000B000D1020008D1020008254D0008D102000835
:1000C000D1020008D1020008D1020008D1020008C4
:1000D000D102000829540008D1020008D10200080A
:1000E000D1020008D1020008D1020008D1020008A4
:1000F000D1020008D1020008D1020008D102000894
:10010000D1020008D1020008D1020008D102000883
:10011000D1020008D1020008694D0008D102000890
:10012000D1020008811D0008D1020008D102000898
:10013000D1020008D1020008D1020008D102000853
:10014000D1020008D1020008D1020008D102000843
:10015000D1020008D1020008D1020008D102000833
:10016000D1020008D1020008D1020008D102000823
:10017000D1020008D1020008711D00080000000033
:10018000D1020008D102000800F002F800F07EF869
:100190000AA090E8000C82448344AAF10107DA45E2
:1001A00001D100F073F8AFF2090EBAE80F0013F0B6
:1001B000010F18BFFB1A43F001031847D094000049
:1001C000009500000A444FF0000C10F8013B13F0BA
:1001D000070408BF10F8014B1D1108BF10F8015BA0
:1001E000641E05D010F8016B641E01F8016BF9D193
:1001F00013F0080F1EBF10F8014BAD1C0C1B09D1EA
:100200006D1E58BF01F801CBFAD505E014F8016B5B
:1002100001F8016B6D1EF9D59142D6D370470000ED
:100220000023002400250026103A28BF78C1FBD8FF
:10023000520728BF30C148BF0B607047662908F0DD
:10024000C984642900F04081752900F03D81782936
:1002500000F09D81632900F06086732900F06586B7
:10026000002070471FB508F0B0FC00F0ABFE0400A2
:100270000020002108F01CFC401C606000200021D0
:1002800008F000FCE0601FBD10B510BD01F020F9C2
:100290001146FFF7E7FF06F01DFD01F047F903B433
:1002A000FFF7F2FF03BC05F021F900000C480168DC
:1002B00041F4700101600B4880470B480047FEE79E
:1002C000FEE7FEE7FEE7FEE7FEE7FEE7FEE7FEE706
:1002D000FEE7000005480649044A064B7047000047
:1002E00088ED00E0114D000889010008B8080010F1
:1002F000B80C0010B8080010704753EA020C00F068
:1003000069802DE9F04B4FF00006002B1FBFB3FAB8
:1003100083F503FA05F424FA05F65E4012BF16438E
:10032000B2FA82F502FA05F4C5F120051EBF22FAE1
:1003300005FC44EA0C04203556EA044C4FEA144408
:1003400018BF641C4FF000084FF00009904271EB99
:10035000030C39D3002919BFB1FA81F701FA07F666
:10036000B0FA80F700FA07F6C7F120071EBF20FA9F
:1003700007FC46EA0C062037B6FBF4FCA7EB0507A2
:10038000103F07F01F0BCBF120060CFA0BFB2CFAE9
:1003900006F644BFB3460026202FA4BF5E464FF0AA
:1003A000000B5BEA060C08BF4FF0010B19EB0B09C1
:1003B000ABFB027C48EB0608C01B06FB02CC0BFB28
:1003C00003CC71EB0C01C1E70B460246414648469F
:1003D000BDE8F08B13B54FF000004FF00001AFF314
:1003E0000080BDE81C4070470FB4044910B503AA53
:1003F000029800F09FFD10BC5DF814FB1000001087
:100400000FB41CB5074B06AA7B44694600900598BB
:1004100000F061FD0020694600F070FD1CBC5DF835
:1004200014FB0000F10A000070B5044685690068FD
:10043000C10601D5302600E02026C00707D070BDD8
:10044000D4E9012130469047206A401C20626D1E8D
:10045000F6D570BD70B5044685690078C00707D130
:1004600070BDD4E9012120209047206A401C206201
:100470006D1EF6D570BD70B50C460546012A05D037
:100480002878800600D5EA69002302E0012305E010
:100490005B1C934202D2E05C0028F9D1A869E618FF
:1004A000C01AA861286A184428622846FFF7BCFFD2
:1004B00004E0D5E9012114F8010B9047B442F8D3C8
:1004C0002846FFF7C7FF70BD2DE9F041064600241E
:1004D00010687529314616A510D0AFF300800028AA
:1004E00002DA404213A507E031688A0701D512A558
:1004F00002E0490704D511A5012401E0AFF3008013
:1005000000210A2206F1240709E0B0FBF2FCB0FB4F
:10051000F2F302FB1C00303078541846491C0028C6
:10052000F3D123462A463046BDE8F04100F066BAD2
:10053000000000002D0000002B0000002000000043
:10054000F0B40D460188090502D51B4C7C4402E03D
:10055000194C7C440E34002100F1240305E002F024
:100560000F061209A65D5E54491C002AF7D10278D5
:100570000023120704D5702D06D009B102231134CF
:100580002246F0BC00F03ABA01231034F8E770B507
:1005900004460D4621461068AFF300800246294606
:1005A0002046BDE87040CBE70368126843F02003A3
:1005B00003600823C361C3E7048A00002DE9F05FEC
:1005C000894604464FF0000ADFF874B1FB44C0F8D6
:1005D00020A02046E1688847002874D0252806D04E
:1005E000D4E901219047206A401C2062F1E70026EF
:1005F0005F462046E16888472028054607DB312D05
:1006000005D2781910F8200C08B10643F1E7B007BD
:1006100001D526F00406C4F81CA00027C4F818A0D1
:100620002A2D09D0284604F05AFF38B304EB870876
:10063000303DC8F8185019E059F8041B204604EB67
:1006400087029161E1688847012F054618D1E0696A
:10065000002820DA26F020061DE0D8F8180000EB6C
:10066000800005EB40003038C8F818002046E168EB
:100670008847054604F033FF0028EED1012F0AD049
:100680002E2D08D12046E16888477F1C0546022FA1
:1006900046F02006C4DBA069002803DA404246F099
:1006A0000106A061F00701D026F010066C2D0BD0DA
:1006B000682D09D04C2D39D06A2D35D0742D35D008
:1006C0007A2D33D016E038E0E1682F46204688477F
:1006D000B842054609D16C2F26D04FF48060E168FE
:1006E000064320468847054604E06C2F1AD04FF495
:1006F000807006430DB3A5F14100192802D82035BA
:1007000046F400664A462946204626604E46FFF7D4
:1007100095FD80B101280BD0F61D26F0070000F1F1
:10072000080956E74020E4E78020D8E70020D6E714
:1007300006F104094DE7284652E7206ABDE8F09F1C
:10074000AC8900000FB400B58DB010A909900091DC
:100750000B904FF0FF300A9000200C900648784430
:100760000690064878446A4607900F9909A800F059
:10077000F9FB0DB05DF814FB230800003B080000F6
:100780002DE9FF5F4FF000089946144646469169EF
:10079000D2E901A7DDF838B001988847054659EA43
:1007A0000B0005D009E0A1690198761C8847054631
:1007B000216A284688470028F5D1681C03D05FEAE3
:1007C000CA7005D015E04FF0FF3004B0BDE8F09FCF
:1007D0002068011D2160D0F800800AE05FEACA703D
:1007E00001D108F8015BA169761C01987F1E88473A
:1007F0000546002F1ADD681C18D0B9F1000F0DD086
:10080000E81705EBD060421120F01F0059F82210C4
:100810002A1A012090400142E0D107E0BBF1000F0D
:10082000DCD12846216A88470028D7D0E1690198A1
:100830008847BBF1000F07D1002E05DD5FEACA70C3
:1008400002D1002188F80010A068B84203DDBBF196
:10085000000F03D017B16FF00100B6E73046B4E7E0
:1008600030B505460B462A4613F8014B12F8010B2A
:1008700008B1A042F8D01CB1002802D06D1CF1E7ED
:10088000284630BD10B5431C02E010F8011B71B1C1
:100890008107FAD14FF0013202C88C1A8C4314EA56
:1008A000C211F9D0C01A0A0603D0C01E10BDC01A6A
:1008B00010BD0A0401D0801E10BD0902FCD0401EEC
:1008C00010BD4FF000020429C0F0128010F0030C9C
:1008D00000F01B80CCF1040CBCF1020F18BF00F833
:1008E000012BA8BF20F8022BA1EB0C0100F00DB8E2
:1008F0005FEAC17C24BF00F8012B00F8012B48BF40
:1009000000F8012B70474FF0000200B513469446E3
:100910009646203922BFA0E80C50A0E80C50B1F157
:100920002001BFF4F7AF090728BFA0E80C5048BF6B
:100930000CC05DF804EB890028BF40F8042B08BF09
:10094000704748BF20F8022B11F0804F18BF00F805
:10095000012B7047704770477047704730B5B0F152
:100960000A024FEA900E71F100034EEA817EB0EB6D
:100970000E0061EB91014FEA101E4EEA017E10EB72
:100980000E0041EB11114FEA102E4EEA016E10EBF2
:100990000E0041EB11214FEA104E4EEA014E10EBD2
:1009A0000E0041EB1141401841F100014FEAD00027
:1009B00040EA41704FEAD10110EB80054FEA810413
:1009C00044EA907444EB01046D1944EB0404521B97
:1009D000A3414FF0000348BF0A3200D530BD401C90
:1009E00041F1000130BD10B500F0F0FA006810BD13
:1009F00010B5044600F0EAFA046010BD2DE9F04796
:100A00000D4699469246044600F12408016888067E
:100A100004D5E06921F01001216000E00120A84226
:100A200001DD471B00E00027A1697A1902EB0900EC
:100A3000081AA0612078C00602D42046FFF7F4FC13
:100A4000002608E0D4E901211AF806009047206A40
:100A5000401C761C20624E45F4DB2078C0060AD587
:100A60002046FFF7E1FC06E0D4E901213020904761
:100A7000206A401C2062381EA7F10107F4DC07E061
:100A8000D4E9012118F805009047206A401C206233
:100A9000281EA5F10105F3DC2046FFF7DBFC2078DA
:100AA000000602D50220BDE8F0870120FBE7704771
:100AB0002DE9FF4F0C461E464FF0FF378BB0D2E9B1
:100AC0000001DDF860800A908A46C1F30A5505B935
:100AD0003D46002108464FF00000BAF1000F00F437
:100AE000400005DA00EB80004FF4400101EA5000BD
:100AF0004FEA9059B9F1010F00DDB9460A9850EA62
:100B00004A000ED044F61050A5F2FF3545432F148D
:100B1000B8F1000F1ED07542291E1EDDC9F100027A
:100B20001CE0B8F1010F4FF0000001D0302103E0CC
:100B3000F24305E02154401CB042FBDB304600226A
:100B4000002121540B99C1F80880C1E900200FB0A1
:100B5000BDE8F08FBD1B6D1CDEE74A4600DA694236
:100B600006A800F03BFC06AB93E8070003AB83E864
:100B7000070050460A9900F023FD8DE80700A0F514
:100B800000501F3800900398002D0ADD42F21F012B
:100B90004A460844002303A90390684600F08CFFEE
:100BA00009E0A0F500504A461F38002303A903902E
:100BB000684600F096FF8DE807000004000C03D0A3
:100BC0004FF0FF30410800E01046B8F1000F03D0AD
:100BD0000022009215461EE0751E05D4FFF7BEFEEA
:100BE000303262556D1EF9D5B3460122084302D05A
:100BF00000227F1C04E02078302801D100227F1ED3
:100C0000002A099784D01DE0112D07DAFFF7A6FE10
:100C1000303262556D1C50EA0102F5D1084302D012
:100C20000098C8B10EE00021681E05E0235C625CFC
:100C300063542254401E491C8142F7DBAB46A81B7B
:100C4000401E0990002004F80B000B98099AC0F888
:100C50000880C0E9002B7AE711264FF0000857E71B
:100C60002DE9F04F88460446D21D22F0070191B0CD
:100C7000D1E90001CDE90A0104F0E0FB02460B983E
:100C8000C00F01D02D2007E02068810701D52B205F
:100C900002E0202101EAC000032A099001D0072ABE
:100CA00005DB03464146204600F09EF90BE1207823
:100CB000800601D5E06900E00620B8F1650F8146A5
:100CC00006D0B8F1660F18D0B8F1670F70D131E0D7
:100CD0000020B9F1110F009001DB112301E009F1AF
:100CE00001030AAA01A90CA8FFF7E2FEDDE90C70D6
:100CF000002609F10105834647E001204B4600909C
:100D00004FF000470AAA01A90CA8FFF7D1FEDDE9C0
:100D10000DB00C995D46002610B909F101000D18BF
:100D2000B9EB050003D4C0F1FF3609F10105A5EBCD
:100D300009002BE0B9F1010F01DA4FF001090020A1
:100D4000B9F1110F0090484601DD112300E0034680
:100D50000AAA01A90CA8FFF7ABFEDDE90C704D460D
:100D600000268346207800070AD4AB4500DA5D46AA
:100D700001A8012D04DD411911F8011C302907D00B
:100D80004F4502DA17F1040F04DA012082460FE022
:100D90006D1EEEE7002F02DCED1B3E4403E0781CE5
:100DA000A84200DD7D1CB81B00F1010A4FF000478E
:100DB0002078000703D4AA4501DB4FF0FF3A002159
:100DC000B7F1004F0DF143088DF8431024D00220F5
:100DD0002B23002F01DA7F422D230A21021EA0F1CE
:100DE000010000DC5FB197FBF1FC97FBF1F201FB26
:100DF0001C7C17460CF1300C08F801CDEEE7A8F189
:100E0000010003702188090501D5452100E0652115
:100E1000A0F1010800F8011C09980FA9A1EB08072F
:100E2000FF1D00B10120411901EBEA70A1693844AE
:100E3000081A401EA0612078C00602D42046FFF7A1
:100E4000F3FA099828B1D4E901219047206A401C9F
:100E500020622078C00622D52046FFF7E5FA1EE082
:100E6000002E04DBB34502DD01A8805D00E03020E8
:100E7000D4E901219047206A401C2062761CAAF127
:100E800001005FEA000A0AD100F09CF8C06801681E
:100E9000405CD4E901219047206A401C2062281E52
:100EA000A5F10105DCDC07E0D4E9012118F8010B0C
:100EB0009047206A401C2062381EA7F10107F3DC2E
:100EC0002046FFF7C7FA032011B041E601694A1C2A
:100ED00002610878704700B58FB0CDE9013100217B
:100EE000059105497944CDE9031011466846FFF79D
:100EF00065FB0FB000BD0000E5FFFFFF0A6802F8C8
:100F0000010B0A60704710B5436913B1AFF300805D
:100F100001E0FFF7B0FA012010BD127800F12401C2
:100F20000A7000224A700122EDE711684FF0FF328B
:100F3000E9E70000074B70B50D467B44FFF7CBFF98
:100F40000446284600F0BCFA10B14FF0FF3070BDE7
:100F5000204670BD5F5200000268114413780160A2
:100F600018467047D1600549794451610449794474
:100F7000116200211161114600F076B8EDFFFFFF0C
:100F800063000000426842B1016811F8013B23B1DF
:100F9000521EC0E90012184670470121C160881E28
:100FA000704742685AB1C368016843B983688B428D
:100FB00005D0491E521CC0E90012002070474FF0B6
:100FC000FF307047004870477408001000487047B1
:100FD0005408001010B5044600F0A0FA0068005D47
:100FE00000F0010010BD00002DE9F0411F4604464D
:100FF00003260168072A01F4006004DB08B116A586
:1010000005E016A503E008B115A500E015A521F03F
:1010100010002060A069C01EA0610FB1401EA06139
:101020002046FFF701FA4FB1D4E901213846904735
:10103000206A401C2062C01C206206E0206AFAE799
:10104000D4E9012115F8010B9047761EF8D220460D
:10105000FFF700FABDE8F0814E414E006E616E0070
:10106000494E4600696E66002DE9F34F4FF0000AC5
:101070000C4656468DB001200C9001F10C000B90EF
:1010800062690B9801219047051E2DD0252D2CD08B
:10109000216A8847C0B162690B9801219047216A93
:1010A00088470028F7D16269411E0B98904700E0FD
:1010B000761CA1690D988847216A88470028F7D1D6
:1010C000E1690D988847DBE7A1690D988847A84238
:1010D000074601D1761CD3E7E1690D9888477F1C4C
:1010E00002D1BAF1000F6FD06BE162690B98002753
:1010F0003D46394690472A2804D162690B98012160
:1011000090470125DFF8D08262690B980121904752
:10111000A0F130010A290AD24745E5DC07EB870137
:1011200000EB4107303FDFD445F01005ECE7E9065E
:1011300001D46FF000476C280AD04C2814D06828DE
:1011400015D06A280DD074281CD07A281AD01DE03A
:1011500062690B98012190476C2802D045F0040584
:1011600014E045F002050DE045F020050AE0626953
:101170000B9801219047682802D045F0080505E04A
:1011800045F4006562690B9801219047C4E9015755
:1011900065283DD019DC58287AD00CDC452837D09A
:1011A00004DC252826D041289ED131E046282FD0C6
:1011B000472899D12CE05B2877D0612828D0632874
:1011C0007CD0642823D15AE0F6E06F2848D008DCB0
:1011D00066281DD067281BD0692821D06E2816D11B
:1011E00027E0702845D0732868D0752847D0782824
:1011F0000DD14DE0A1690D988847252805463FF49B
:1012000069AFE1690D9888476D1C3FF46AAFD8E07B
:101210000D9923466A466FF00100AFF30080C5E0E8
:1012200045F0400023464FF000026060A80736D426
:101230003EE0E8077FF447AF2068011D21600068A9
:10124000290501D506701BE7290701D5068017E798
:10125000A90703D5F117C0E9006111E706600FE7A0
:1012600045F0400023464FF008026060A80716D4FE
:101270001EE040F60E0125EA0100606016E045F030
:10128000400023464FF00A026060A80707D40FE031
:1012900045F040006060A80708D5234610220D994C
:1012A0006FF00100AFF3008080E007E010222346DA
:1012B0000D996FF00100AFF3008077E04FF0000967
:1012C00063284F46C8464B46CB4602D05B2806D023
:1012D00038E0E80601D40120A060012732E062690D
:1012E000D4F80CB00B98012190475E2807D14FF03D
:1012F000010949466269D4F80CB00B9890472169FE
:1013000039B900210A4603AB43F82120491C0829BA
:10131000FADBD8B3216949B308F1010862690B9877
:10132000012190475D28F4D1B9F1000F09D00020C8
:1013300003A951F82020D24341F82020401C08285E
:10134000F7DB03AB2069002820794FEA40701ED0FC
:101350005B462246CDF80080CDE901970D99002823
:101360006FF0010020DAAFF300801FE0C11703AA7D
:1013700000EBD1614B1121F01F0102EB8302411AF6
:1013800013680120884003431360C7E719E00D99F3
:10139000224600286FF00100009702DAAFF30080C8
:1013A00004E0FFF7EDF901E0AFF3008000280ADA6E
:1013B000401C06D10C9820B14FF0FF300FB0BDE8B3
:1013C000F08F5046FAE7E90701D10AF1010A064415
:1013D00000200C9054E60000CCCCCC0C2DE9F0475A
:1013E000814616468AB0354878440DC88DE80D0010
:1013F00032487844801C03AC0DC884E80D0041F6E7
:101400009B300844372190FBF1F290FBF1F5A5F1F8
:10141000800501FB12041B3C02D56442012000E060
:101420000020DFF898A080460027FA44AAF1BE0AFF
:101430000EE0E0070AD03246684607EB4701012379
:101440000AEB810100F04DFB8DE8070064107F1C62
:10145000002CEED1194F7F44AE3F19E0E80715D0BC
:1014600007EB04100DF1180A90E80E008AE80E0050
:10147000C068F04201D1981908903246012306A9AC
:1014800003A800F02EFB03AB83E807006D10641C7B
:10149000002DE3D14FF0010332466946B8F1000F49
:1014A00003A802D000F008FB01E000F01AFBC9E934
:1014B0000001C9F808200AB0BDE8F087207C0000D0
:1014C000007B00F08000704700487047540800100F
:1014D0007546FFF7F9FFAE4605006946534620F012
:1014E0000700854618B020B5FEF7F4FEBDE82040A1
:1014F0004FF000064FF000074FF000084FF0000BD0
:1015000021F00701AC46ACE8C009ACE8C009ACE882
:10151000C009ACE8C0098D467047000010B5FFF760
:1015200051FD001D10BD00BF8975000010B50446B7
:10153000AFF300802046BDE81040FEF7B0BE0000CB
:101540004FF0013C50F8042B51F8043B9A4221D152
:10155000A2EB0C03934313EACC1317D150F8042BDE
:1015600051F8043B9A4215D1A2EB0C03934313EAC2
:10157000CC130BD150F8042B51F8043B9A4209D1FB
:10158000A2EB0C03934313EACC13DBD04FF0000023
:10159000704700BFD01A01BAB1FA81F101F0180109
:1015A00022FA01F0CB40C1F12001DBB2C0B2C01A77
:1015B0002CFA01F3D11A914311EAC311E6D1704715
:1015C0005FEA400C08BF91F0000F4FEA8C234FEA0E
:1015D000C12243EA51514FEA1C5018BF00F5F040B8
:1015E0004FEA300018BF41F000415FEA6C5C00F048
:1015F0002980BCF1FF3F08BF40F080407047130CCA
:1016000006BF12044FF0100C4FF0000C130E04BF75
:1016100012020CF1080C130F04BF12010CF1040CA0
:10162000930F04BF92000CF1020CD30F04BF5200C1
:101630000CF1010C11464FF00002A0F11F00A0EBCD
:101640000C00704711F0004F08BF704731F00041A7
:101650003FF4D5AF0B0C06BF09044FF0100C4FF050
:10166000000C0B0E04BF09020CF1080C0B0F04BF99
:1016700009010CF1040C8B0F04BF89000CF1020C62
:10168000CB0F04BF49000CF1010CCCF12003A0EBFF
:101690000C0022FA03F302FA0CF241EA030100F112
:1016A0000100704720F07F4C80EA030023F07F4761
:1016B000ACEB070303F57C5300F0004003F1FF039C
:1016C0002DE980494FEA154B09B44FEA144325EA46
:1016D0000B4E24EA03480FF2042606EB13274908B1
:1016E0003E785FEA320203FB0667C7F5000707FB97
:1016F00006F64FEA54374FEAD64606F1020607FBD4
:10170000066CCCF1005C4FEA1C472CEA074C07FB47
:1017100006F40CFB06F504EB15464FEA961634BFAB
:1017200000204FF000404FEAD13706FB07FC4FEA9C
:101730001C4C0CFB0BF7D21B03FB0CF761EB0701F6
:101740000CFB0EF7B0EB074072EB17420CFB08F7EF
:1017500034BFA2EB0742B2EB074261EB17414FEAFD
:101760000C444FEA910706FB07FC4FEA1C4C0CFBAC
:101770000BF7B0EBC74072EB573203FB0CF734BFEB
:10178000A2EBC742B2EBC74261EB57310CFB0EF73D
:10179000B0EBC70072EB57720CFB08F734BFA2EB3B
:1017A000C702B2EBC70261EB5771039F4FEA816139
:1017B00041EA921104EBCC044FEAD1374FEA82623E
:1017C00006FB07FC42EA90124FEA80604FEA1C4C8D
:1017D0000CFB0BF7D21B03FB0CF761EB07010CFBB7
:1017E0000EF7B0EB074072EB17420CFB08F734BF63
:1017F000A2EB0742B2EB074261EB17414FEA8C556F
:101800004FEA910704EB9C2406FB07FC4FEA1C4CB3
:101810000CFB0BF7B0EBC74072EB573203FB0CF736
:1018200034BFA2EBC742B2EBC74261EB57310CFBAE
:101830000EF7B0EBC70072EB57720CFB08F734BF22
:10184000A2EBC702B2EBC70261EB577115EB4C2557
:101850004FEA816141EA92114FEA82624FEAD13741
:1018600042EA901206FB07FC44F100044FEA806054
:101870004FEA1C4C0CFB0BF7D21B03FB0CF761EB84
:1018800007010CFB0EF7B0EB074072EB17420CFBA5
:1018900008F734BFA2EB0742B2EB074261EB1741F6
:1018A00015EB1C154FEA813141EA92414FEA823231
:1018B00042EA90424FEA80304FEA0C7644F100044D
:1018C00048EA03434EEA0B484FF0000EB2EB080C17
:1018D00071EB030724BF624639464EEB0E0E4FF004
:1018E000000B0018524149414BEB0B0BB2EB080CBB
:1018F00071EB03077BF1000B24BF624639464EEBC8
:101900000E0E4FF0000B0018524149414BEB0B0BF0
:10191000B2EB080C71EB03077BF1000B24BF6246AE
:1019200039464EEB0E0E51EA020718BF46F001068B
:1019300016EB0E7655F1000254F1000103D5BDE817
:101940008901BDE80088BDE88901BDE80048B619F5
:10195000524141EB0101A3F10103704780807F7E7A
:101960007D7C7B7A79787776767574737271717015
:101970006F6E6E6D6C6C6B6A6A69686867666665C7
:101980006464636362616160605F5F5E5E5D5D5C55
:101990005C5B5B5A5A5959585857575656555555C6
:1019A0005454535352525251515050504F4F4F4E26
:1019B0004E4D4D4D4C4C4C4B4B4B4A4A4A49494974
:1019C00048484847474747464646454545444444B6
:1019D000444343434342424242414141002B9C46DF
:1019E00030D477002BD01CB54FEA370703B44FF043
:1019F00010004FF01001BAF1000F06D0BCF1000F3B
:101A0000DCBF40F0080040F008014FF000000FBCC0
:101A1000BDE810400BF1010BBBF1010F08BF5FEAFD
:101A2000170722BF12F1010211F101014FF000412D
:101A300043F1000300F0004043EA00007047F9D38F
:101A40005708D0E746EA064613F1400F4FEA16461C
:101A50001FDD13F1200FDFBF16430A46002120339C
:101A60005B42BED0C3F1200746EA064602FA07F7FA
:101A70004FEA164646EA0706C3F1200722FA03F2A8
:101A800001FA07F721FA03F14FF0000342EA0702D7
:101A9000A7E746EA020646EA06464FEA164646EA3F
:101AA0000106BCBF46EA0646360C4FF000034FF075
:101AB00000024FF0000194E72DE9804C9A469346CE
:101AC00070B491E8380007C831EA400C48BF34EAE6
:101AD000430C03D5FFF7E6FDFFF780FFF0BCBDE840
:101AE000008C2DE9804C9A46934670B491E83800FA
:101AF00007C810F0804F08BF13F0804F03D100F0EB
:101B000005F8FFF76BFFF0BCBDE8008C20F07F47C5
:101B100080EA030023F07F4C07EB0C03A3F57C5312
:101B200000F00040A3F1FE0392F0000F00F0B3803C
:101B300095F0000F00F077802DE901494FEA114040
:101B40004FEA144621EA004800FB06FC24EA064757
:101B500008FB06F607FB08F800FB07F718EB06483A
:101B60004CEB164C4FEA124B18EB07484FEA154660
:101B70004CEB174022EA0B4E0BFB06FC25EA06470E
:101B80000EFB06F607FB0EFE0BFB07F71EEB064EE1
:101B90004CEB164C4FF000061EEB074E4CEB174B70
:101BA00018EB0B0840F1000018EB0E0B58EB000887
:101BB00040F100008F1A4FF000013CBFC943661B83
:101BC00014BFB5EB040C00213CBFC943F61B4FEA20
:101BD00017444EEA8E0E27EA04454FEA1C4704FBE1
:101BE00007622CEA074C05FB07F70CFB05F604FB24
:101BF0000CFC16EB074642EB174216EB0C4642EB89
:101C00001C421BEB060658EB0202414146EA9E06C7
:101C100001D5BDE80189B619524141EB0101A3F19B
:101C20000103BDE801894FEA14454FEA114724EA50
:101C3000054621EA074C05FB07F406FB07F70CFBFA
:101C400006F105FB0CFC11EB074144EB17444FEA8E
:101C5000124711EB0C4144EB1C4422EA074C05FBF4
:101C600007F206FB07F70CFB06F605FB0CFC16EB70
:101C7000074642EB174216EB0C4642EB1C456A182E
:101C800054F1000148BF7047B619524141EB0101C0
:101C9000A3F10103704795F0000F37D04FEA1142CE
:101CA0004FEA144721EA024624EA074C02FB07F1F7
:101CB00006FB07F70CFB06F402FB0CFC14EB0744D5
:101CC00041EB17414FEA154714EB0C4441EB1C4123
:101CD00025EA074C02FB07F506FB07F70CFB06F6A7
:101CE00002FB0CFC16EB074645EB174516EB0C46C2
:101CF00045EB1C42121951F1000148BF7047B6195B
:101D0000524141EB0101A3F1010370474FEA144531
:101D10004FEA114724EA054621EA074C05FB07F183
:101D200006FB07F70CFB06F24FF0000605FB0CFC68
:101D300012EB074241EB174112EB0C4251EB1C41F5
:101D400048BF7047921841EB0101A3F101037047AE
:101D500000BFFEE770B50546AC6BA06B406D022876
:101D600002D0012084F82500204600F0F9F870BD6B
:101D700010B5024800F01AF910BD000080040010F0
:101D800010B5284800682849884205D926485438A3
:101D9000006800F400601BE0224800682349884284
:101DA00005D921485838006800F4006010E01D484B
:101DB00000681E496039884205D91C48B838406817
:101DC00000F4006004E01948B838006800F40060CE
:101DD00030B3144800681449884204D9C814124921
:101DE0004C39086019E00F4800681049884204D94E
:101DF000C8140D49503908600FE00A4800680B49C3
:101E00006039884204D9C8140849B839C86004E068
:101E10004FF400600549B83988600548006880477C
:101E200010BD0000C004001058640240B8600240B9
:101E3000D00100100146087810381823B0FBF3F2E7
:101E40000848805CC865032A05D908686FF3090053
:101E5000001D886503E008686FF309008865886DD8
:101E600070470000D88B0008014600208A6A8B6901
:101E7000CBB932B1012A0DD0022A03D0032A10D1E6
:101E80000EE000BFCB6A03F08073B3F1807F00D116
:101E9000012007E0CB6AB3F1C07F00D1012001E04F
:101EA00000E000BF34E08B69B3F5005F1AD132B1B6
:101EB000012A07D0022A03D0032A11D10AE000BF69
:101EC00001200EE0CB6A03F08073B3F1807F00D174
:101ED000012006E0CB6AB3F1C07F00D1012000E011
:101EE00000BF15E032B1012A05D0022A04D0032A2E
:101EF0000CD103E000BF00BF012008E0CB6A03F073
:101F00008073B3F1807F00D1012000E000BF00BFEB
:101F1000704710B5046863608468402C04D104687D
:101F2000A2600468E16003E00468A1600468E26004
:101F300010BD30B50468246824F4802405682C6042
:101F4000046863608468402C04D10468A26004685B
:101F5000E16003E00468A1600468E26030BD70479E
:101F60007047000010B5044601200D49096848611A
:101F700004F06CF900BF4FF480610A4800F0D2FB16
:101F800000BF09480078401C0749087004480068F1
:101F9000C06840F0010002490968C86010BD000037
:101FA0008004001000140240CC01001070B50446FB
:101FB0002068056905F0040004280ED121684861F5
:101FC000E06B40F00200E063042084F82500224822
:101FD000A16B0865A06B00F0A5F905F002000228CE
:101FE0000ED121684861E06B40F00100E0630420FD
:101FF00084F825001848A16B0865A06B00F092F9E1
:1020000005F01000102804D121684861204600F036
:102010006EF805F00800082804D1216848612046C0
:1020200000F0ECF805F00100A0B12068006800F0B5
:102030000200022805D12068C06820F01E00216837
:10204000C8602068C06820F001002168C860204690
:10205000FFF788FF70BD0000551D000810B504464D
:102060000CB9012010BD94F8250040B9002084F877
:102070002400204600F03CF8204600F039F8022009
:1020800084F825002068006840F6F87188432168CC
:102090000860616960680843E16808432169084392
:1020A000A1680843A1690843216A084321680968B7
:1020B000084321680860606810280BD1217F607F89
:1020C00041EA0021A07F41EA0041E07F41EA00604F
:1020D000216888612068C06840F01E002168C860DF
:1020E0000020E063012084F825000020BAE7704753
:1020F00010B586B0044600BF002000903A48006842
:1021000040F00100384908600846006800F001000E
:10211000009000BF00BF00BF00200090081F0068B3
:1021200040F00100091F08600846006800F0010047
:10213000009000BF00BF00BF00200090084600686C
:1021400040F0020008600846006800F002000090BD
:1021500000BF00BF00BF002000900846006840F0AC
:10216000040008600846006800F00400009000BF0A
:1021700000BF00BF002000900846006840F010003B
:1021800008600846006800F01000009000BF00BF23
:10219000502001900220029001200390032004901F
:1021A0000D20059001A9114800F0B2F9C02001905E
:1021B00001A90F4800F0ACF94FF43C60019001A96F
:1021C0000C4800F0A5F96020019001A90A4800F030
:1021D0009FF9022211464E2000F01BFB4E2000F01A
:1021E00008FB06B010BD0000343802400000024079
:1021F00000040240000802400010024070472DE930
:10220000F04704460E4617461D46DDF820804FF085
:102210000009A068802804D1400060654FF00109E2
:1022200029E000BF94F83400012802D10220BDE863
:10223000F087012084F8340000BF94F835000128AD
:1022400017D1022084F835002068006840F480200F
:10225000216808602068056143463A4631462046B9
:10226000FFF757FE2068006840F001002168086011
:1022700001E04FF002094846D9E770B50446A56D64
:1022800000F066FA064694F83500022808D080204F
:10229000606500BF002084F8340000BF012070BDDD
:1022A0002068006820F016002168086020684069F6
:1022B00020F0800021684861206C08B9A06C28B12A
:1022C0002068006820F00800216808602068006825
:1022D00020F00100216808600FE000F039FA801B4F
:1022E00005280AD92020606500BF002084F834004A
:1022F00000BF032084F83500D1E72068006800F0B3
:1023000001000028E9D194F85C103F208840A860C3
:1023100000BF002084F8340000BF012084F835009D
:102320000020BCE7014691F83500022803D0802048
:10233000486501207047052081F83500086800686D
:1023400020F001000A6810600020F3E770B5044631
:102350000CB9012070BD94F83500022800D1F9E7CE
:102360002068006820F001002168086000202168D2
:10237000086021684860216888602168C860216819
:1023800008612120216848612046FFF753FD05467A
:102390000020E06320646064A064E064206594F839
:1023A0005C103F208840A8600020606584F83500FC
:1023B00000BF84F8340000BF00BFCBE72DE9F04137
:1023C0000446002500F0C4F9074614B90120BDE811
:1023D000F081606A00B100BF00BF002084F83400C3
:1023E00000BF022084F835002068006820F001005A
:1023F000216808600AE000F0ABF9C01B052805D988
:1024000020206065032084F83500E0E7206800683C
:1024100000F001000028EED1206805682148054041
:10242000D4E901010843E16808432169084361696F
:102430000843A1690843E1690843216A0843054349
:10244000606A042803D1D4E90B01084305432068DE
:1024500005602068456925F00705606A0543606AE4
:1024600004280DD1A06A0543E06A48B12046FFF771
:10247000FBFC28B140206065012084F83500A6E708
:10248000206845612046FFF7D5FC064694F85C10AD
:102490003F208840B06000206065012084F835004E
:1024A000002094E73F8010F02DE9F04104460D46EE
:1024B00016461F464FF0000800BF94F8340001286C
:1024C00002D10220BDE8F081012084F8340000BF71
:1024D00094F83500012811D1022084F8350000203D
:1024E00060653B46324629462046FFF722FD2068BC
:1024F000006840F001002168086006E000BF00208D
:1025000084F8340000BF4FF002084046DAE70000CC
:10251000F8B502460B460025002400200021DEE02D
:10252000012606FA01F51E6806EA0504AC4275D1DB
:102530001E7906F00306012E04D01E7906F003066C
:10254000022E13D190684F000326BE40B0434F00C7
:10255000DE68BE4030439060506801268E40B04334
:102560001E79C6F300168E40304350601E7906F087
:102570000306032E09D0D0684F000326BE40B043A7
:102580004F009E68BE403043D0601E7906F00306BF
:10259000022E13D1CF0802F1200656F827004E076D
:1025A000F70E0F26BE40B0434F07FF0E1E69BE4018
:1025B0003043CF0802F1200646F8270010684F008C
:1025C0000326BE40B0431E7906F003064F00BE400E
:1025D000304310605E6806F08056B6F1805F7DD1B2
:1025E00000BF00260096404E366846F480463E4FB7
:1025F0003E603E46366806F48046009600BF00BF47
:102600003A4E8F0856F827008E07370F0F26BE4028
:10261000B043374EB24202D1002624E05EE0354E90
:10262000B24201D101261EE0334EB24201D1022650
:1026300019E0324EB24201D1032614E0304EB242CC
:1026400001D104260FE02F4EB24201D105260AE047
:102650002D4EB24201D1062605E02C4EB24201D1E8
:10266000072600E008268F073F0FBE4030431F4E6D
:102670008F0846F82700264E3068A0435E6806F4AF
:102680008036B6F5803F00D12043214E3060361DA4
:102690003068A0435E6806F40036B6F5003F00D10E
:1026A00020431B4E361D3060361D3068A0435E68E7
:1026B00006F48016B6F5801F00D12043144E08366C
:1026C0003060361D3068A0435E6806F40016B6F52B
:1026D000001F00D120430E4E0C363060491C1029DB
:1026E000FFF41EAFF8BD0000443802400838014036
:1026F000000002400004024000080240000C0240BA
:10270000001002400014024000180240001C024069
:10271000003C0140024613690B400BB1012000E070
:102720000020704710B5426921EA020302EA010461
:1027300043EA0443836110BD0AB1816101E00B04E7
:102740008361704701480068000C7047002004E076
:10275000014800687047000000000010034800684E
:1027600003490978084401490860704700000010D7
:102770000800001010B50A48006840F400700849CD
:1027800008600846006840F480600860052000F09A
:102790007FF80F2000F006F800F02AF8002010BDA6
:1027A000003C024070B504460E4800784FF47A7140
:1027B000B1FBF0F00C490968B1FBF0F5284600F0D8
:1027C0002BFC08B1012070BD102C07D2002221463D
:1027D000501E00F01EF80548046001E00120F2E7F9
:1027E0000020F0E708000010800200100400001034
:1027F000704701460846002809DB00F01F0301224C
:102800009A4043099B0003F1E023C3F8002100BF75
:1028100070472DE9F05F80460D461646002702F00E
:1028200025FE074639462A46334601F00700C0F127
:10283000070ABAF1040F02D94FF0040A01E0C0F10F
:10284000070AD14600F1040ABAF1070F02D24FF08D
:10285000000A01E0A0F1030AD4464FF0010A0AFA87
:1028600009FAAAF1010A0AEA020A0AFA0CFA4FF076
:10287000010B0BFA0CFBABF1010B0BEA030B4AEA61
:102880000B042146404602F0F9FDBDE8F09F000030
:1028900000BF00F00702064B19684FF6FF0319400E
:1028A000044B0B4343EA0221014B196000BF704700
:1028B0000CED00E00000FA0570B504460D460CB9B9
:1028C000012070BD5848006800F00700A84209D2F6
:1028D00055490D700846006800F00700A84201D075
:1028E0000120EEE7207800F0020002281DD12078B8
:1028F00000F00400042805D14C48006840F4E05082
:102900004A490860207800F00800082805D14748A7
:10291000006840F46040454908604448006820F081
:10292000F000A168084341490860207800F00100E8
:10293000A8B36068012807D13C4808380068C0F394
:102940004040B8B90120BCE76068022802D0606846
:10295000032807D1354808380068C0F3406048B9FB
:102960000120AEE7314808380068C0F3400008B9DC
:102970000120A6E72D48006820F0030061680843A5
:102980002A490860FFF7E4FE064609E0FFF7E0FE8B
:10299000801B41F28831884202D9032091E707E089
:1029A0002248006800F00C006168B0EB810FEDD1A7
:1029B0001D48006800F00700A84209D91A490D70A7
:1029C0000846006800F00700A84201D0012078E71F
:1029D000207800F00400042807D11448006820F48F
:1029E000E050E168084311490860207800F00800D1
:1029F000082808D10D48006820F46040216940EAA9
:102A0000C1000A49086000F061F808490968C1F38B
:102A10000311074A515CC84006490860064800682F
:102A2000FFF7C0FE00204CE7003C0240083802409F
:102A30003C8F000880020010040000100F2202608A
:102A40000D4A126802F0030242600B4A126802F05B
:102A5000F0028260084A126802F4E052C260064A3C
:102A6000126802F46042D2080261044A126802F05D
:102A700007020A607047000008380240003C02402C
:102A800001480068704700008002001000B5FFF7A1
:102A9000F7FF04490968C1F38221034A515CC84029
:102AA00000BD0000083802404C8F000800B5FFF759
:102AB000E7FF04490968C1F34231034A515CC84049
:102AC00000BD0000083802404C8F00082DE9F04797
:102AD000002400250026A1462548006800F00C00CF
:102AE00020B1042805D008283AD105E0DFF8849009
:102AF00039E0DFF8849036E01D48001F006800F0E0
:102B00003F041B48001F006800F4800078B11A4899
:102B10001749091F0968C1F38811A0FB017001461C
:102B2000224600233846FDF7E8FB05460EE0114833
:102B30000F49091F0968C1F38811A0FB0170014604
:102B4000224600233846FDF7D8FB05460848001FFB
:102B50000068C0F30140401C4600B5FBF6F902E0F6
:102B6000DFF8109000BF00BF4846BDE8F0870000C6
:102B7000083802400024F40000127A00F8B5044638
:102B80000CB90120F8BD207800F00100002874D0B5
:102B9000F948006800F00C0004280DD0F6480068E1
:102BA00000F00C00082813D1F348001F006800F45F
:102BB0008000B0F5800F0BD1EF4808380068C0F3F3
:102BC0004040002859D06068002856D10120D9E73C
:102BD00000BF6068B0F5803F08D1E748083800685A
:102BE00040F48030E449083908601EE06068B0F5C0
:102BF000A02F0DD1E0480838006840F48020DE495D
:102C0000083908600846006840F4803008600CE02D
:102C1000D9480838006820F48030D749083908605E
:102C20000846006820F48020086000BF606890B10A
:102C3000FFF78EFD054606E0FFF78AFD401B64287E
:102C400001D903209EE7CC4808380068C0F3404013
:102C50000028F1D011E0FFF77BFD054606E0FFF705
:102C600077FD401B642801D903208BE7C248083850
:102C70000068C0F340400028F1D1207800F0020045
:102C800002285FD1BC48006800F00C0058B1BA4877
:102C9000006800F00C0008281CD1B748001F00682D
:102CA00000F48000B0B9B44808380068C0F34000B0
:102CB00020B1E068012801D0012063E7AE48083860
:102CC000006820F0F800216940EAC100AA490839EB
:102CD000086037E0E06800B30120A8490860FFF70A
:102CE00037FD054606E0FFF733FD401B022801D9FA
:102CF000032047E7A04808380068C0F340000028D8
:102D0000F1D09D480838006820F0F800216940EAB9
:102D1000C10099490839086014E00020974908600B
:102D2000FFF716FD054606E0FFF712FD401B0228DF
:102D300001D9032026E7904808380068C0F3400016
:102D40000028F1D1207800F0080008282CD1606913
:102D5000A8B101208A490860FFF7FAFC054606E0A1
:102D6000FFF7F6FC401B022801D903200AE782483E
:102D70006C300068C0F340000028F1D014E000205F
:102D80007F490860FFF7E4FC054606E0FFF7E0FC3A
:102D9000401B022801D90320F4E677486C30006814
:102DA000C0F340000028F1D1207800F0040004288E
:102DB00070D1002770483830006800F0805090B91A
:102DC00000BF002000906C483830006840F0805010
:102DD0006949383108600846006800F0805000906A
:102DE00000BF00BF01276748006800F48070B0B9D9
:102DF0006448006840F4807062490860FFF7A8FCEE
:102E0000054606E0FFF7A4FC401B022801D9032079
:102E1000B8E65C48006800F480700028F2D000BF7B
:102E2000A068012808D154486830006840F00100CB
:102E30005149683108601DE0A06805280DD14E4851
:102E40006830006840F004004B496831086008466B
:102E5000006840F0010008600CE0474868300068F6
:102E600020F001004449683108600846006820F0FD
:102E70000400086000BFA068A8B1FFF769FC054620
:102E800009E0FFF765FC401B41F28831884202D916
:102E9000032077E626E0384868300068C0F3400039
:102EA0000028EED013E0FFF753FC054608E0FFF7DB
:102EB0004FFC401B41F28831884201D9032061E672
:102EC0002D4868300068C0F340000028EFD1012F82
:102ED00007D129483830006820F080502649383121
:102EE000086000BFA069002845D02348006800F0B2
:102EF0000C0008285DD0A069022845D100201F4998
:102F00000866FFF725FC054606E0FFF721FC401B9D
:102F1000022801D9032035E6174808380068C0F3B5
:102F200040600028F1D1D4E907010843616A40EA12
:102F300081110122A06AC2EB500041EA00412C201D
:102F4000005D41EA00600C49091F086001200B493F
:102F50000866FFF7FDFB054606E0FFF7F9FB401B9F
:102F6000022801D903200DE6034808380068C0F3A1
:102F700040600028F1D049E0083802400000474294
:102F8000800E474200700040002021490866FFF78C
:102F9000DFFB054606E0FFF7DBFB401B022801D9FB
:102FA0000320EFE51B480068C0F340600028F2D121
:102FB0002CE0A069012800D1E4E51648001D066850
:102FC000A069012820D006F48001E06981421BD16C
:102FD00006F03F01206A814216D147F6C0703040AA
:102FE000616AB0EB811F0FD106F440310122A06A63
:102FF000C2EB5000B1EB004F06D106F070612C20FF
:10300000005DB1EB006F01D00120BBE50020B9E508
:10301000000047420038024070B504462546681E4D
:10302000B0F1807F01D301200FE0681E4FF0E02156
:1030300048610F214FF0FF3002F020FA00204FF0DE
:10304000E021886107200861002070BD704770474B
:1030500010B504460CB9012010BD94F83D0028B904
:10306000002084F83C00204600F026F8022084F876
:103070003D00211D206801F07FFE012084F84600FC
:1030800000BF84F83E0001213F200155402001553A
:103090004120015500BF00BF012084F842004320B9
:1030A0000155442001554520015500BF012084F8F9
:1030B0003D000020D0E7000038B504460F492068E5
:1030C000884219D100BF00BF002000900C48006862
:1030D00040F010000A4908600846006800F010003F
:1030E000009000BF00BF00BF032201213620FFF780
:1030F00090FB3620FFF77DFB38BD0000001000403C
:1031000040380240014691F83D00012801D00120DD
:103110007047022081F83D000868C06840F0010057
:103120000B68D8601A4B086898421BD00868B0F149
:10313000804F17D0174B0868984213D0164B086879
:1031400098420FD0154B086898420BD0144B086872
:10315000984207D0134B0868984203D0124B086876
:1031600098420CD10868806800F00702062A0CD04B
:103170000868006840F001000B68186005E0086806
:10318000006840F001000B6818600020C0E70000F4
:10319000000001400004004000080040000C004016
:1031A000000401400040014000180040704710B585
:1031B000044620680069C0F34000D8B12068C068A8
:1031C000C0F34000B0B16FF0020021680861012037
:1031D00020772068806900F0030018B12046FFF7CF
:1031E000E5FF05E0204600F0ADF8204600F0A2F92A
:1031F0000020207720680069C0F38000D8B12068E3
:10320000C068C0F38000B0B16FF0040021680861AD
:10321000022020772068806900F4407018B12046B1
:10322000FFF7C4FF05E0204600F08CF8204600F0D0
:1032300081F90020207720680069C0F3C000D8B170
:103240002068C068C0F3C000B0B16FF0080021680A
:103250000861042020772068C06900F0030018B1DD
:103260002046FFF7A3FF05E0204600F06BF820465C
:1032700000F060F90020207720680069C0F300109A
:10328000D8B12068C068C0F30010B0B16FF0100072
:1032900021680861082020772068C06900F4407028
:1032A00018B12046FFF782FF05E0204600F04AF8FB
:1032B000204600F03FF9002020772068006900F0E8
:1032C000010058B12068C06800F0010030B16FF013
:1032D000010021680861204600F0B4F92068006907
:1032E000C0F3C01058B12068C068C0F3C01030B13E
:1032F0006FF08000216808612046FFF7A7FE206874
:103300000069C0F3801058B12068C068C0F3801015
:1033100030B16FF0400021680861204600F0ACF940
:1033200020680069C0F3401058B12068C068C0F33D
:10333000401030B16FF02000216808612046FFF78F
:1033400086FE10BD704770B504460D46164600BF98
:1033500094F83C00012801D1022070BD012084F8BE
:103360003C0000BF36B1042E1BD0082E31D00C2EED
:103370005ED145E02946206801F07CFD2068806927
:1033800040F00800216888612068806920F004000E
:1033900021688861206880692969084321688861FB
:1033A00047E02946206801F09DFD2068806940F4CF
:1033B0000060216888612068806920F4806021684D
:1033C000886120688069296940EA01202168886154
:1033D0002FE02946206801F0C3FD2068C06940F055
:1033E00008002168C8612068C06920F004002168D5
:1033F000C8612068C069296908432168C86118E06C
:103400002946206801F0E8FD2068C06940F40060AA
:103410002168C8612068C06920F480602168C861A3
:103420002068C069296940EA01202168C86100E07C
:1034300000BF00BF00BF002084F83C0000BF00BFF9
:103440008BE710B504460CB9012010BD94F83D007F
:1034500028B9002084F83C00204600F025F802201E
:1034600084F83D00211D206801F086FC012084F8CD
:10347000460000BF84F83E0001213F200155402056
:1034800001554120015500BF00BF012084F84200D2
:1034900043200155442001554520015500BF01201E
:1034A00084F83D000020D0E710B586B004462068BF
:1034B000B0F1804F38D100BF00BF002000901B4802
:1034C000006840F00100194908600846006800F0F3
:1034D0000100009000BF00BF00BF00BF00BF002080
:1034E000009012481038006840F001000F49103970
:1034F00008600846006800F00100009000BF00BFAF
:1035000000BF0120019002200290002003900120C2
:103510000490059001A90648FEF7FAFF02200190E9
:1035200001A90348FEF7F4FF06B010BD4038024081
:10353000000002407047000070B504460D4615B902
:1035400094F83E000BE0042D02D13F20005D06E020
:10355000082D02D14020005D01E04120005D0128DE
:1035600001D0012070BD1DB9022084F83E000EE09C
:10357000042D03D102213F20015508E0082D03D17D
:1035800002214020015502E0022141200155012283
:103590002946206801F05CFC23492068884203D05A
:1035A00022492068884201D1012000E0002028B192
:1035B0002068406C40F40040216848641A49206843
:1035C00088421BD02068B0F1804F17D0184920687E
:1035D000884213D01749206888420FD016492068C6
:1035E00088420BD011492068884207D013492068CF
:1035F000884203D01249206888420CD12068806834
:1036000000F00706062E0CD02068006840F001008C
:103610002168086005E02068006840F0010021682A
:10362000086000209EE70000000001400004014007
:103630000004004000080040000C00400040014031
:103640000018004010B504460548844207D10548DB
:10365000017805A0FCF7C8FE00200249087010BDE3
:1036600038040010CC0100106672616D653A256463
:103670006670730D0A0000007047704770470000C5
:103680002DE9F84F0446206805682068C668206860
:1036900047694FF00009CA4605F00F09B9F1000F5C
:1036A0000AD105F0200038B106F0200020B12046F4
:1036B00001F0F1FCBDE8F88FB9F1000F72D007F00E
:1036C000010018B906F4907000286BD005F00100D5
:1036D00030B106F4807018B1206C40F00100206415
:1036E00005F0040030B107F0010018B1206C40F083
:1036F0000200206405F0020030B107F0010018B1AB
:10370000206C40F00400206405F0080048B106F089
:10371000200010B907F0010018B1206C40F008003B
:103720002064206C70B305F0200028B106F0200062
:1037300010B1204601F0AFFC20684069C0F3801A48
:10374000206C00F0080010B9BAF1000F23D0204619
:1037500001F076FC2068406900F04000402816D156
:103760002068406920F0400021684861A06B50B19A
:103770005648A16B0865A06BFEF7D4FD10B1A06B95
:10378000016D88470CE02046FFF778FF08E02046EF
:10379000FFF774FF04E02046FFF770FF002020646D
:1037A00088E7FFE7206B012879D105F01000002899
:1037B00075D006F01000002871D000BF00200090E6
:1037C00020680068009020684068009000BF00BF3B
:1037D0002068406900F04000402839D1A06B0068A3
:1037E00040681FFA80F8B8F1000F30D0A08D404536
:1037F0002DDDA4F82E80A06BC069B0F5807F1FD0AE
:103800002068C06820F480702168C8602068406922
:1038100020F00100216848612068406920F04000E4
:1038200021684861202084F83E0000202063206841
:10383000C06820F010002168C860A06BFEF71DFD75
:10384000A08DE28D801A81B22046FFF716FF31E786
:10385000A08DE18D401A1FFA80F8E08DE8B1B8F133
:10386000000F1AD02068C06820F490702168C860EA
:103870002068406920F0010021684861202084F818
:103880003E00002020632068C06820F010002168FE
:10389000C86041462046FFF7F0FE0BE7FFE705F062
:1038A000800030B106F0800018B1204601F08BFD99
:1038B00000E705F0400030B106F0400018B12046A6
:1038C00001F0D9FBF6E600BFF4E600002D50000839
:1038D00010B504460CB9012010BDA06900B100E08C
:1038E00000BF94F83D0028B9002084F83C00204631
:1038F00000F028F8242084F83D002068C06820F4F7
:1039000000502168C860204601F024FC206800694E
:1039100020F49040216808612068406920F02A0066
:10392000216848612068C06840F400502168C86080
:1039300000202064202084F83D0084F83E00002010
:10394000CAE7000010B586B004462E4920688842B8
:1039500055D100BF00BF002000902B48006840F008
:103960001000294908600846006800F01000009027
:1039700000BF00BF00BF00BF00BF00200090224872
:103980001438006840F001001F49143908600846E7
:10399000006800F00100009000BF00BF00BF00BF42
:1039A00000BF002000900846006840F00100086059
:1039B0000846006800F00100009000BF00BF00BF93
:1039C00048150190022002900120039002200490EB
:1039D0000720059001A90D48FEF79AFD4FF480607D
:1039E00001900720059001A90848FEF791FD2520C8
:1039F000FEF7FFFE032211462520FEF70AFF06B060
:103A000010BD000000100140443802400000024098
:103A100070B504460D46164694F83E00202816D18F
:103A200005B10EB9012070BD00BF94F83C0001281B
:103A300001D10220F7E7012084F83C0000BF0020FC
:103A4000206332462946204601F09AFCEBE702202B
:103A5000E9E7000010B504462049206888423BD1C0
:103A60001F48008800F4004088BB1D48008800F40F
:103A7000804070B11B4800780A2803D00020184904
:103A8000088024E01648008840F40040144908806B
:103A90001DE0144800780D2806D11148008840F434
:103AA00080400F49088012E00E4800780C490988D0
:103AB000C1F30D010C4A505409480088401C0849C4
:103AC000088008460088C72801DD00200880012200
:103AD00004490648FFF79CFF10BD0000001001409C
:103AE0001400001016000010840200104C03001097
:103AF000704700BFFEE700BFFEE770477047000059
:103B000010B1044A1288028011B1024A52880A8018
:103B10007047000000020010014800797047000063
:103B2000000200102DE9FF4F2DED048B89B00546F2
:103B3000884693460020089082460790069005909C
:103B40000490039002909FED960AB0EE409A15B152
:103B5000B8F1C80F07D200209249087109B0BDEC36
:103B6000048BBDE8FF8F2878FF2802D16878D82819
:103B70000FD08D480068032802D28CA0FCF734FCDB
:103B800000208849087188480068401C8649086000
:103B9000E4E764243BE0285DFF2808D1601C285C32
:103BA00028B1601C285CFF2801D0641C2EE015F8A9
:103BB0000490049881450DDDCDF8109004FB0BF0C6
:103BC000B0FBF8F080B2039010986043B0FBF8F0BF
:103BD00080B20290B9F1C80F14DB0AF1010A07980C
:103BE0004844079004FB0BF0B0FBF8F1069801FB8A
:103BF0000900069010986043B0FBF8F1059801FBAE
:103C0000090005900898401C089000BF1034A8F1E6
:103C10000100A04203D90898B0F57A7FBBD362486F
:103C20000068032818D26048016869A0FCF7DCFB33
:103C30005A46414675A0109BFCF7D6FB52467EA023
:103C40000899FCF7D1FB88A0DDE902320499FCF762
:103C5000CBFB8FA0FCF7C8FB9B49098804988842DE
:103C600002DBBAF10A0F19D24F480068032806D2C6
:103C700053469548028895480499FCF7B5FB002007
:103C800048490871C88092480078401C90490870E3
:103C900045480068401C444908605FE7079850B1F8
:103CA000DDE90601B0FBF1F086B207990598B0FB9B
:103CB000F1F087B201E0039E029F5E4502DBABF1AB
:103CC000010086B21098874202DB1098401E87B22E
:103CD000804800780A2813DA00EE106AB8EE408AAD
:103CE00000EE107AF8EE408A7B4880ED008A7B482F
:103CF000C0ED008A77480078401C7649087027E0BC
:103D0000B7EE000A30EE490A7348D0ED000A60EEC3
:103D1000200A00EE106AB8EE400AB0EE608A00EEAB
:103D2000098AB7EE000A30EE490A6C48D0ED000A65
:103D300060EE200A00EE107AB8EE400AF0EE608ADB
:103D400040EE098A644880ED008A6448C0ED008A2C
:103D5000BCEEC80A10EE100A12490880BCEEE80A50
:103D600010EE100A488001200871A1F806A000207A
:103D7000574908700C48006803280AD2094840884F
:103D8000CDE9000A074803883A4631465448FCF713
:103D90002BFB05480068401C0349086000BFDDE6B6
:103DA0003333333F000200100C0200105B4A5045D1
:103DB000472D4445544543545D20496E76616C69F6
:103DC00064204A504547206865616465720D0A00A9
:103DD0000D0A3D3D3D3D3D3D3D3D3D3D204A50456B
:103DE000472D444554454354204672616D65232553
:103DF0006C7520446961676E6F736973203D3D3D4A
:103E00003D3D3D3D3D3D3D0D0A0000005B4A5045B6
:103E1000475D2053697A653A20256C752062797474
:103E200065732C205265736F6C7574696F6E3A20E0
:103E300025647825640D0A005B53414D504C455D67
:103E40002053616D706C65733A20256C752C20428F
:103E500072696768742073616D706C65733A2025B0
:103E60006C750D0A000000005B4252494748545DE2
:103E7000204D61783D256420617420657374696DFF
:103E800061746564202825642C2564290D0A0000CE
:103E90003D3D3D3D3D3D3D3D3D3D3D3D3D3D3D3D52
:103EA0003D3D3D3D3D3D3D3D3D3D3D3D3D3D3D3D42
:103EB0003D3D3D3D3D3D3D3D3D3D3D3D3D3D3D3D32
:103EC0003D3D0D0A0D0A000008020010649500082F
:103ED0002102001020020010100200101402001035
:103EE000B095000870470000014800787047000056
:103EF000F0010010F8B506460F4614461D46264848
:103F000006704770448085809FED240A80ED020A88
:103F10000A2021498881B7EE000A084680ED040A8C
:103F20009FED1F0A1F4880ED000A9FED1D0A80EDDE
:103F3000010A204604EBD071C1F34F01194A1181E7
:103F4000284605EBD071C1F34F0151810020114685
:103F5000087308610875144908701146D1ED000A0C
:103F6000B0EE600A0C49087800F0A8FD0D49D1EDCB
:103F7000010AB0EE600A0849487800F09FFD234628
:103F80003A46314609A00095FCF72EFAFF20144965
:103F9000087014490870F8BD280800109A99993ED5
:103FA0000000B4423C080010F00100105B54524184
:103FB000434B5D20496E6974204F4B202D2050618A
:103FC0006E3A434825642054696C743A434825642A
:103FD00020496D6167653A25647825640D0A000003
:103FE000FB010010FC01001000B52DED068B83B025
:103FF000B0EE408AF0EE608A214890ED000A30EE83
:10400000080A80ED000A90ED010A30EE280A80EDE2
:10401000010A02F041FE1A48001D02F03DFE184957
:10402000D1ED000AB0EE600A1649087800F046FDAE
:104030001349D1ED010AB0EE600A1249487800F048
:104040003DFD0F4890ED010A10EE101A084604F0ED
:104050004BFD41EC190B0A4890ED000A10EE101AC6
:10406000084604F041FD41EC1A0B8DED009B53EC2A
:104070001A2B05A0FCF7B8F903B0BDEC068B00BD08
:104080003C080010280800105B545241434B5D204F
:104090004D616E75616C3A2050616E3D252E316622
:1040A000B6C82054696C743D252E3166B6C80D0A19
:1040B000000000002DE9F0432DED108B97B0FB4878
:1040C0000078012804D017B0BDEC108BBDE8F08358
:1040D000FFF722FD002873D015A916A8FFF710FDE1
:1040E000F348408800EE100AB8EE400AF0EE000AED
:1040F00080EE201AB0EE418AED48808800EE100A6A
:10410000B8EE400AF0EE000A80EE201AF0EE418A86
:10411000BDF85800E7490881BDF85400488113AB49
:1041200014AABDF85410BDF8580001F0F7F9E248A0
:1041300000781E282CDADF4890ED010A10EE101AE4
:10414000084604F0D1FC41EC190BDA4890ED000A66
:1041500010EE101A084604F0C7FC41EC1A0B139835
:1041600004F0C2FC41EC1B0B149804F0BDFC41ECC4
:104170001C0B8DED069B8DED04AB8DED02BB8DED23
:1041800000CBBDF85420BDF85810CC48FCF72CF9F2
:10419000BDF85410BDF8580002F00EF888B1C848B8
:1041A000007800280BD0C74800681E21B0FBF1F250
:1041B00001FB1200002802D1C3A0FCF715F926E28A
:1041C00036E2BC4890ED000AB948D0ED020AB7EEDD
:1041D000001A71EE600A20EE200AD0ED020A9DED71
:1041E000141A01EE200A8DED120AB24890ED010A70
:1041F000AF48D0ED020AB7EE001A71EE600A20EE69
:10420000200AD0ED020A9DED131A01EE200A8DED71
:10421000110A12A802F040FD11A802F03DFDA548C8
:1042200090ED000ADDED120A30EEC00AB0EEC00AD1
:10423000B0EE40FA90ED010ADDED110A30EEC00A51
:10424000B0EEC00AF0EE40FA00240025BCEEC80A29
:1042500010EE100A81B2BDF858001430814201DD21
:1042600001240FE0B3EE040A38EE000ABCEEC00AE7
:1042700010EE100A80B2BDF85810884201DA02240C
:1042800000E00024BCEEE80A10EE100A81B2BDF88E
:1042900054001430814201DD01250FE0B3EE040A21
:1042A00038EE800ABCEEC00A10EE100A80B2BDF8EB
:1042B0005410884201DA022500E000257D4890ED87
:1042C000000ADFED8C0A30EE200ADDED120AB4EEB2
:1042D000E00AF1EE10FA01D287A010E09DED120A7B
:1042E000DFED840A30EE200A7248D0ED000AB4EE09
:1042F000E00AF1EE10FA01D281A000E082A00646A9
:104300006C4890ED010ADFED7B0A30EE200ADDED0E
:10431000110AB4EEE00AF1EE10FA01D27CA010E02E
:104320009DED110ADFED730A30EE200A6148D0EDF1
:10433000010AB4EEE00AF1EE10FA01D276A000E034
:1043400071A00746284604F087FB8046204604F00B
:104350006BFB81464B46CDE900860297BDF85420A1
:10436000BDF858106DA0FCF73FF878480078FF289A
:104370000CD05CB97548007840B17448007804F0FE
:1043800053FB8046414672A0FCF72EF8784800782F
:10439000FF280CD05DB97648007840B174480078A9
:1043A00004F05AFB8046414672A0FCF71DF86748AE
:1043B00004706F4805703E4890ED040AB4EECF0AD1
:1043C000F1EE10FA06D990ED040AB4EEEF0AF1EE20
:1043D00010FA68D89DED120A364880ED000A9DED6E
:1043E000110A80ED010A0146D1ED000AB0EE600A23
:1043F0002F49087800F062FB2E49D1ED010AB0EE9A
:10440000600A2B49487800F059FB2B4800781E2899
:104410004ADA1FEE900A04F067FB41EC190B1FEE1D
:10442000100A04F061FB41EC1A0B224890ED010ADE
:1044300010EE101A084604F057FB41EC1B0B1D4808
:1044400090ED000A10EE101A084604F04DFB41EC06
:104450001C0B139804F048FB41EC1D0B149804F05E
:1044600043FB41EC1E0B8DED0E9B8DED0CAB8DEDEA
:104470000ABB0F48407808908DED06CB0C480078B9
:1044800004908DED02DB8DED00EBBDF85430BDF8EE
:104490005820094801783F48FBF7A6FF06480078F6
:1044A000401C05490870B1E076E00000F001001002
:1044B000280800103C080010FD0100108C94000832
:1044C000F8010010F40100105B545241434B5D2091
:1044D000496E2064656164207A6F6E652C20686F78
:1044E0006C64696E6720706F736974696F6E0D0A12
:1044F000000000006F12833A524947485400000000
:104500004C45465400000000484F4C440000000059
:10451000444F574E00000000555000005B44495284
:104520005D2078793A2825752C25752920706F73C0
:104530003A25737C257320636D643A50414E3D25C6
:10454000732054494C543D25730D0A00FB010010A3
:104550005B4449525D20582043524F53533A202523
:1045600073202D3E2043454E5445520D0A00000055
:10457000FC0100105B4449525D20592043524F53C7
:10458000533A202573202D3E2043454E5445520D6D
:104590000A0000003494000890480078142190FB31
:1045A000F1F201FB120060BB8D4890ED010A10EEA4
:1045B000101A084604F098FA41EC190B884890ED5F
:1045C000000A10EE101A084604F08EFA41EC1A0B9D
:1045D0008DED069B8348407804908DED02AB8148B9
:1045E00000780090BDF85430BDF858207B48017821
:1045F0007DA0FBF7F9FE79480078401C77490870E8
:1046000004E076480078401C7449087000BF01201F
:1046100073490873002008617F4908707048007D65
:1046200028B100206E4908757C48FBF7DDFECDE01F
:104630006B480069401C6A490861774800780A287D
:104640000BDA084602697448017875A0FBF7CCFEC6
:1046500071480078401C70490870614800691E2844
:1046600008D35F48007D28B901205D490875754869
:10467000FBF7BAFE5A48007D00287DD09FED720AF4
:10468000F0EE409A9FED700AB0EE40AAB5EE000A37
:10469000B0EE408A524890ED000AF7EE000A70EE44
:1046A000C80A20EE200A09EE880AF0EE408A90ED52
:1046B000010AF7EE000A70EEC80A20EE200A0AEEA0
:1046C000080AB0EE409A90ED000A38EEC00AB0EE4B
:1046D000C00AF0EE40AA90ED010A39EE400AB0EEB1
:1046E000C00AB0EE40DA9FED590AF4EEC0AAF1EE2E
:1046F00010FA06DA9FED550AB4EEC0DAF1EE10FAC0
:104700003BDB3748C0ED008A80ED019A0146D1EDD0
:10471000000AB0EE600A3349087800F0CFF930495A
:10472000D1ED010AB0EE600A2E49487800F0C6F9D2
:104730002B4800691E21B0FBF1F201FB1200E8BB1F
:10474000274890ED010A10EE101A084604F0CCF943
:1047500041EC1B0B224890ED000A10EE101A08469F
:1047600004F0C2F941EC1C0B8DED00BB53EC1C2B8B
:1047700037A0FBF739FE25E025E0194800691E2126
:10478000B0FBF1F201FB1200C0B9154890ED010A2F
:1047900010EE101A084604F0A7F941EC1B0B104864
:1047A00090ED000A10EE101A084604F09DF941EC55
:1047B0001C0B8DED00BB53EC1C2B00E002E031A084
:1047C000FBF712FE00BF0020054908733C48006853
:1047D000401C3B49086000BF75E40000FD0100106B
:1047E0003C080010280800105B545241434B5D20E8
:1047F0002325642078793A2825642C256429203DD6
:104800003E20434825643D252E31662043482564DB
:104810003D252E31660D0A00FE0100101895000896
:104820005B545241434B5D204C6F737420232564CD
:104830002028746F74616C5F6C6F73743D256C75A8
:10484000290D0A00D49400080000B442CDCCCC3D20
:104850005B545241434B5D2052657475726E696EB4
:104860006720746F2063656E7465722E2E2E205043
:10487000616E3D252E31662054696C743D252E31C4
:10488000660D0A005B545241434B5D2043656E74D4
:10489000657265642061742028252E31662C2025E0
:1048A0002E3166292C2077616974696E6720666FE6
:1048B00072207461726765742E2E2E0D0A0000003E
:1048C000F401001010B5044603488481214603A07A
:1048D000FBF78AFD10BD0000280800105B54524110
:1048E000434B5D2044656164207A6F6E652073657B
:1048F0007420746F20256420706978656C730D0ACC
:104900000000000010B504460A480078A0420FD00D
:10491000084804700CB908A000E009A001460BA0EB
:10492000FBF762FD012C03D10020104908610875D6
:1049300010BD0000F00100104D414E55414C0000EB
:104940004155544F5F545241434B00005B54524118
:10495000434B5D204D6F6465206368616E676564DD
:1049600020746F3A2025730D0A0000003C080010E7
:1049700010B52DED048BB0EE408AB5EEC08AF1EE95
:1049800010FA03D29FED0F0AB0EE408AB7EE000A8C
:10499000B4EEC08AF1EE10FA03DDB7EE000AB0EE15
:1049A000408A094880ED028A18EE100A04F09CF84B
:1049B00041EC190B53EC192B04A0FBF715FDBDECD2
:1049C000048B10BD00000000280800105B54524109
:1049D000434B5D20536D6F6F746820666163746F25
:1049E000722073657420746F20252E32660D0A00C4
:1049F00010B59FED310A002000F060F89FED2E0AFF
:104A0000012000F05BF84FF4487000F00FFF002425
:104A100013E000EE104AB8EE400A002000F04EF815
:104A200000EE104AB8EE400A012000F047F81E20C0
:104A300000F0FCFE04F10A0084B2B42CE9DD4FF46E
:104A4000167000F0F3FEB42413E000EE104AB8EE46
:104A5000400A002000F032F800EE104AB8EE400A9A
:104A6000012000F02BF81E2000F0E0FEA4F10A0067
:104A700084B2002CE9DCB3EE040A002000F01EF83A
:104A80004FF4967000F0D2FEB3EE040A012000F05D
:104A900015F84FF4967000F0C9FE9FED070A00204C
:104AA00000F00CF89FED040A012000F007F84FF425
:104AB000167000F0BBFE10BD0000B44270B52DEDC5
:104AC000088B0446F0EE40AAB0EE6AAA022C02DB84
:104AD000BDEC088B70BDB5EEC0AAF1EE10FA03D2A2
:104AE0009FED300AB0EE40AA9FED2F0AB4EEC0AAA7
:104AF000F1EE10FA03DD9FED2C0AB0EE40AA2B4830
:104B000000EB840090ED008A294800EB8400D0ED92
:104B1000009A79EEC88AF5EEC08AF1EE10FA07D84D
:104B20009FED210AF0EE408A38EE280AF0EE409A16
:104B30009FED1D0ACAEE000AB0EE480A08EEA00A70
:104B4000B0EE409A1B4800EB840090ED000A30EE76
:104B5000090AB0EE409AB4EEC89AF1EE10FA01D20A
:104B6000B0EE489AB4EEE99AF1EE10FA01DDB0EE3B
:104B7000699A39EE480A80EE28BA9FED0F0ADFEDF8
:104B80000F0A00EE8B0AF6EE000A30EE200ABCEEA9
:104B9000C00A10EE100A85B22946204600F026F819
:104BA00000BF95E70000000000003443E001001062
:104BB000E8010010D80100100000FA430000FA4498
:104BC00002280EDAF4EEC00AF1EE10FA09DD05490A
:104BD00001EB800181ED000A034901EB8001C1ED89
:104BE000000A7047E0010010E80100100246B1F52C
:104BF000FA7F01D24FF4FA7140F6C413994200D9FA
:104C000019460AB9002004E0012A01D1042000E07D
:104C1000704718B90A4B1B6859630EE0042803D18A
:104C2000074B1B68996308E0082803D1044B1B68F5
:104C3000D96302E0024B1B68196400BFE8E700007B
:104C4000A80700102DE9F04186B0294F44F61F68EF
:104C5000FDF71CFF0546694601A8FDF7EFFE049825
:104C600008B92C4600E06C00B4FBF7F0401E86B299
:104C70004FF080401F49086008464660002181606F
:104C8000C0F80C800161FEF7DCFB60201A49086067
:104C900040F2DC504860002088600861002215481E
:104CA000FEF751FB60201549086040F2DC50486077
:104CB00000208860086104220E48FEF744FB0021B2
:104CC0000C48FEF739FC04210A48FEF735FCDFEDFD
:104CD0000C0A9FED0C0A0020FFF772FFDFED080AB7
:104CE0009FED080A0120FFF76BFF06B0BDE8F081D9
:104CF00040420F00A8070010F00700100C08001039
:104D0000000034430000000010B5FDF727FD10BD82
:104D10000348006840F470000149086070470000D3
:104D200088ED00E010B50E480068C06800F0010092
:104D300078B10C4908698047002009490968486230
:104D400000BF642006490968C86264210448C16044
:104D500000BF6FF0010002490968086110BD000042
:104D600090030010D400001010B50248FEF71FFA9F
:104D700010BD00003804001010B50268294B98429D
:104D80000ED0B0F1804F0BD0274B984208D0274B64
:104D9000984205D0264B984202D0264B984203D128
:104DA00022F070024B681A431E4B984220D0B0F19B
:104DB000804F1DD01C4B98421AD01C4B984217D0E4
:104DC0001B4B984214D01B4B984211D01A4B98425F
:104DD0000ED01A4B98420BD0194B984208D0194B61
:104DE000984205D0184B984202D0184B984203D1F4
:104DF00022F44072CB681A4322F080034C6943EAE4
:104E0000040202608B68C3620B688362054B9842A0
:104E100002D0084B984201D10B690363012343611F
:104E200010BD0000000001400004004000080040E8
:104E3000000C0040000401400040014000440140DB
:104E40000048014000180040001C004000200040C5
:104E500030B501F01F05012404FA05F3046A9C43F0
:104E60000462046A01F01F0502FA05F52C4304628E
:104E700030BD000030B5056A25F001050562026A03
:104E80004368846924F0700424F003040D682C4303
:104E900022F002028D682A43104DA84200D103E09F
:104EA0000F4DA84206D100BF22F00802CD682A4368
:104EB00022F00402094DA84202D0094DA84207D1B0
:104EC00023F4807323F400734D692B438D692B43C6
:104ED000436084614D684563026230BD000001405B
:104EE0000004014030B5056A25F010050562026A2C
:104EF0004368846924F4E04424F440740D6844EA6F
:104F0000052422F020028D6842EA0512124DA842C3
:104F100000D103E0114DA84207D100BF22F080026A
:104F2000CD6842EA051222F040020B4DA84202D0A1
:104F30000A4DA84209D123F4806323F400634D692C
:104F400043EA85038D6943EA8503436084614D68C4
:104F50008563026230BD0000000001400004014092
:104F600030B5056A25F480750562026A4368C46934
:104F700024F0700424F003040D682C4322F4007222
:104F80008D6842EA0522124DA84200D103E0114D7E
:104F9000A84207D100BF22F40062CD6842EA052290
:104FA00022F480620A4DA84202D00A4DA84209D1DB
:104FB00023F4805323F400534D6943EA05138D69AC
:104FC00043EA05134360C4614D68C563026230BDA6
:104FD000000001400004014030B5056A25F4805509
:104FE0000562036A4468C26922F4E04222F4407216
:104FF0000D6842EA052223F400538D6843EA053325
:10500000084DA84202D0084DA84204D124F480449F
:105010004D6944EA85144460C2614D6805640362C9
:1050200030BD0000000001400004014070B505469D
:10503000AC6B0020E085E0842046FEF71FFB70BDCE
:105040000168C96821F490710268D16001684969FA
:1050500021F0010102685161016B012905D101684C
:10506000C96821F010010268D160202180F83E104B
:1050700000210163704710B504462068C06820F025
:1050800040002168C860202084F83D002046FEF7DB
:105090002FFD002010BD70B5044694F83E00222874
:1050A00056D1A068B0F5805F0CD1206950B90025B9
:1050B000A66A20684068C0F308003080A06A801C9F
:1050C000A06215E0A56A0026A068B0F5805F03D055
:1050D000A06828B9206918B920684068287004E0E1
:1050E0002068406800F07F002870A06A401CA06221
:1050F000E08D401E80B2E08540BB2068C06820F093
:1051000020002168C8602068C06820F48070216891
:10511000C8602068406920F00100216848612020B3
:1051200084F83E00206B01280AD12068C06820F076
:1051300010002168C860A18D2046FEF79EFA02E0AB
:105140002046FEF787FC0020206370BD0020FCE7AE
:105150000220FAE72DE9F84F04462068006920F4A0
:105160004050E1680843216808612169A06808434C
:1051700061690843E169084300902068C06849F20A
:105180000C618843009908432168C8602068406921
:1051900020F44070A169084321684861764920687D
:1051A000884203D075492068884203D1FDF77EFC10
:1051B000814602E0FDF76AFC8146E069B0F5004FE8
:1051C0006CD102206168A0FB015003461920A9FBA5
:1051D000007001462A463846FBF78FF86421B0FB81
:1051E000F1F04FEA001A02206168A0FB01510B4662
:1051F0001920A9FB00712A463846FBF77EF8834642
:1052000002206168A0FB015003461920A9FB007130
:105210002A463846FBF771F86421B0FBF1F000EB49
:10522000C00101EB0010ABEB8000322101EBC000AC
:105230006421B0FBF1F000F0F8000AEB400A022014
:105240006168A0FB015003461920A9FB00700146CC
:105250002A463846FBF751F8834602206168A0FBD6
:10526000015003461920A9FB00712A463846FBF776
:1052700044F86421B0FBF1F000EBC00101EB001039
:10528000ABEB8000322101EBC0006421B0FBF1F0F8
:1052900000F007005044216888606AE004206168DB
:1052A000A0FB015003461920A9FB007001462A46C5
:1052B0003846FBF722F8824604206168A0FB0150C3
:1052C00003461920A9FB007001462A463846FBF721
:1052D00014F86421B0FBF1F000EBC00101EB001009
:1052E000AAEB8000322101EB00106421B0FBF1F049
:1052F00000F0F00A04206168A0FB01700346192049
:10530000A9FB00513A462846FAF7F7FF6421B0FBA3
:10531000F1F00AEB001A04206168A0FB01510B4672
:105320001920A9FB00712A463846FAF7E6FF8346A2
:1053300004206168A0FB015003461920A9FB0070FE
:1053400001462A463846FAF7D8FF6421B0FBF1F04F
:1053500000EBC00101EB0010ABEB8000322101EB50
:1053600000106421B0FBF1F000F00F005044216800
:105370008860BDE8F88F0000001001400014014073
:1053800010B5034699629A85DA85002018642220B8
:1053900083F83E0000BF002083F83C0000BF18687F
:1053A000C06840F480701C68E0601868406940F094
:1053B00001001C6860611868C06840F020001C682B
:1053C000E060002010BD014691F83D00212828D161
:1053D0008868B0F5805F0BD1086948B90A6A1088FF
:1053E000C0F308000B685860086A801C086205E07A
:1053F0000B6A581C086218780B685860C88C401EED
:1054000080B2C88458B90868C06820F080000B6872
:10541000D8600868C06840F040000B68D860002081
:1054200070470220FCE7000010B50248FEF728F99B
:1054300010BD00004C03001000BFFEE703B401984C
:105440004100009850EAC12018BF04204A0D18BF3F
:1054500040F0010040F2FF72B2EB515F08BF40F034
:105460000200012808BF052002B07047024800680A
:10547000C0F30220704700000CED00E010B50028DA
:1054800004DB0A07130E054A135406E00A07140E3C
:10549000034A00F00F031B1FD45410BD00E400E0CA
:1054A00018ED00E010B52DED028BB1EEC08A18EEBC
:1054B000100A20F00040C0F1FF40C00F0AD010EEEB
:1054C000100A20F00040C0F1FF40C00F04BF0120CF
:1054D000FBF78EFAB0EE480ABDEC028B10BD3038F7
:1054E0000A2801D2012070470020704700BF704792
:1054F00070B505460C4607480749086008464460F1
:1055000000218160C560FDF7A3FD0348FDF7FAFDAA
:1055100070BD0000001000403804001010B5294C88
:10552000648801EE104AB8EE411AF0EE001A81EEDE
:10553000212AB0EE420A234CA48801EE104AB8EEAC
:10554000411AF0EE001A81EE212AF0EE420A01EE35
:10555000100AB8EE411A31EE401ADFED1B1A21EEA7
:10556000211AC1EE001A9FED181A31EE811A82ED50
:10557000001A01EE101AB8EE411A31EE601ADFED92
:10558000131A21EE211AC1EE201A9FED0F1A31EEE7
:10559000811A83ED001A0E4C24783CB192ED001A6A
:1055A000DFED0C1A31EEC11A82ED001A0A4C247894
:1055B0003CB193ED001ADFED071A31EEC11A83ED0D
:1055C000001A10BD280800100000B44200008C42F0
:1055D000F901001000003443FA01001010B5002357
:1055E0000D4C236023461B6843EA40132360234687
:1055F0001B6843EA8113236023461B6843EAC213F6
:10560000236023461B6843F48043236023461B68C2
:1056100043F00103236010BD000005502DE9F8435D
:1056200006460C4615461F46DDF8208000BF0020C8
:1056300000903148006840F480002F490860084617
:10564000006800F48000009000BF00BF00BF2B483E
:105650002B49886308462949886300BF08460068CB
:10566000006820F010000968086026482349086097
:105670004FF000704860002120488160C160C0F890
:1056800010804FF48051416187610911C161490265
:10569000016204214162012181620021C162016332
:1056A000FCF754FE1548FCF789FE00BF00201349A3
:1056B00081F8340000BF34B92B46324612490F48F6
:1056C000FCF7F2FE16E0234632460F490B480095E0
:1056D000FCF795FD09480068006840F01000074994
:1056E00009680860032202213920FDF792F8392069
:1056F000FDF77FF8BDE8F88330380240C0040010A1
:1057000080040010286402402800055010B511489C
:10571000114908600020486020210F488160002165
:10572000C160016141618161FCF798FC0020094979
:10573000C86009480068C06840F00100064909686F
:10574000C86005480068006840F480400249096864
:10575000086010BD00000550800400102DE9F041E4
:1057600006460F4614461D4600F040F84FF6FF70FF
:1057700001F0C2F82B4622463946304601F066F960
:105780002946204601F030FD0021084601F0CEF800
:1057900001F02CFA0648006840F001000449086056
:1057A0000448006840F0010002490860BDE8F0814B
:1057B000286402400000055010B50021084601F0A1
:1057C000B5F801F013FA07480068006840F00100DE
:1057D0000449096808600448006840F00100024973
:1057E000086010BDC0040010000005500A480068A1
:1057F00020F001000849086000BF0748006800F079
:1058000001000028F9D105480068006820F0010077
:10581000024909680860704700000550C004001084
:1058200001490860704700000C00001010B50446E4
:105830004FF47A7104FB01F000F002F810BD000093
:1058400070B5034600224FF0E02675690D4E3668AC
:1058500003FB06F44FF0E026B16910E04FF0E026BC
:10586000B06988420BD0884202D20E1A324402E05C
:105870002E1A0E4432440146A24200D300E0EDE766
:1058800000BF70BD0C00001030B599B005460C4645
:1058900015B9012019B030BD1CB12046FAF7F2FF4E
:1058A00028B92A4608A16846FAF7AAFD05E023466A
:1058B0002A4609A16846FAF7A3FD42F210720CA12C
:1058C000684600F011FBE5E741542B43574A41502D
:1058D0003D222573220D0A0041542B43574A415063
:1058E0003D222573222C222573220D0A0000000080
:1058F0004F4B000030B58DB004460D4614B9012061
:105900000DB030BD2B46224605A16846FAF778FD5A
:1059100042F2107209A1684600F0E6FAF0E70000D2
:1059200041542B43495053544152543D2254435007
:10593000222C222573222C25640D0A004F4B0000D7
:1059400070B505460DB9012070BD41F288320021C5
:105950000BA000F0C9FA88B94FF4FA70FFF766FFA0
:105960000AA10E48FAF77CFF04463CB10D342A46E2
:105970000BA12046FAF7E6FE0020E5E70120E3E769
:1059800041542B43494653520D0A00002B434946CC
:1059900053523A53544149502C220000A80500109C
:1059A000255B5E225D0000001FB5002450A0FAF7C1
:1059B0001BFD4FF4E13000F085FB4FF47A70FFF7E8
:1059C00035FF55A0FAF710FD00F05EFA4FF4FA60CB
:1059D000FFF72CFF5AA0FAF707FD012000F034FB77
:1059E00004462CB160A0FAF7FFFC012004B010BD02
:1059F0004FF4FA70FFF71AFF61A0FAF7F5FC00F018
:105A00001DFA044624B165A0FAF7EEFC0120EDE78B
:105A10004FF4FA60FFF70AFF64A0FAF7E5FC6BA108
:105A20006DA0FFF731FF0446002C0AD06CA0FAF7F6
:105A3000DBFC79A0FAF7D8FC82A0FAF7D5FC0120AC
:105A4000D4E74FF4FA60FFF7F1FE002000900190D8
:105A5000029003906846FFF773FF18B9694684A067
:105A6000FAF7C2FC87A0FAF7BFFC012000F0C4FAE5
:105A7000044624B18CA0FAF7B7FC0120B6E74FF436
:105A8000FA70FFF7D3FE90A0FAF7AEFC41F69871DA
:105A900096A0FFF72FFF0446002C0DD096A0FAF732
:105AA000A3FCA0A0FAF7A0FCABA0FAF79DFCB6A05F
:105AB000FAF79AFC012099E74FF47A70FFF7B6FEE7
:105AC000B9A0FAF791FC00F0D9FA044624B1BEA0BF
:105AD000FAF78AFC012089E74FF4FA70FFF7A6FE77
